:020000040800F2
:1000000000000320ED290008D5280008D7280008A3
:10001000D9280008DB280008DD28000800000000BF
:10002000000000000000000000000000DF280008C1
:10003000E128000800000000E3280008E528000887
:10004000352A0008352A0008352A0008352A000814
:10005000352A0008352A0008352A0008352A000804
:10006000352A0008352A0008352A0008352A0008F4
:10007000352A0008352A0008352A0008352A0008E4
:10008000352A0008352A0008352A0008352A0008D4
:10009000352A0008352A0008352A0008352A0008C4
:1000A000352A0008352A0008352A0008352A0008B4
:1000B000352A0008352A0008352A0008352A0008A4
:1000C000352A0008352A0008352A0008352A000894
:1000D000352A0008352A0008352A0008352A000884
:1000E000352A0008352A0008352A0008352A000874
:1000F000352A0008352A0008352A0008352A000864
:10010000352A0008352A0008352A0008352A000853
:10011000352A0008352A0008352A0008352A000843
:10012000352A0008352A0008352A0008352A000833
:10013000352A0008352A0008352A0008352A000823
:10014000352A0008352A0008352A0008352A000813
:10015000352A0008352A0008352A0008352A000803
:10016000352A0008352A0008352A0008352A0008F3
:10017000352A0008352A0008352A0008000000004A
:10018000352A0008352A0008352A0008352A0008D3
:10019000352A0008352A0008352A0008000000002A
:0C01A000352A0008352A0008352A00081E
:1001B00001F0FF01102A2BDB10F0070F08D010F818
:1001C000013B013A8B422DD010F0070F42B3F6D11C
:1001D000F0B441EA012141EA014122F007047FF035
:1001E00000070023F0E80256083C85EA010586EA8C
:1001F000010685FA47F5A3FA87F586FA47F6A5FAC8
:1002000087F68EB9EED1F0BC01F0FF0102F00702D3
:1002100032B110F8013B013A83EA010313B1F8D17E
:100220000020704701387047002D06BF354603385F
:10023000073815F0010F07D1013015F4807F02BF98
:10024000013015F4C03F0130F0BC0138704700BFE9
:10025000034613F8012B002AFBD1181A0138704706
:1002600081F0004102E000BF83F0004330B54FEA67
:1002700041044FEA430594EA050F08BF90EA020FD4
:100280001FBF54EA000C55EA020C7FEA645C7FEA67
:10029000655C00F0E2804FEA5454D4EB5555B8BF8A
:1002A0006D420CDD2C4480EA020281EA030382EAFB
:1002B000000083EA010180EA020281EA0303362D8D
:1002C00088BF30BD11F0004F4FEA01314FF4801C60
:1002D0004CEA113102D0404261EB410113F0004F72
:1002E0004FEA03334CEA133302D0524263EB430329
:1002F00094EA050F00F0A780A4F10104D5F1200EC7
:100300000DDB02FA0EFC22FA05F2801841F1000121
:1003100003FA0EF2801843FA05F359410EE0A5F1F5
:1003200020050EF1200E012A03FA0EFC28BF4CF026
:10033000020C43FA05F3C01851EBE37101F00045DC
:1003400007D54FF0000EDCF1000C7EEB00006EEBE9
:100350000101B1F5801F1BD3B1F5001F0CD3490873
:100360005FEA30004FEA3C0C04F101044FEA4452CA
:1003700012F5800F80F09A80BCF1004F08BF5FEA51
:10038000500C50F1000041EB045141EA050130BD31
:100390005FEA4C0C404141EB0101013C28BFB1F543
:1003A000801FE9D291F0000F04BF01460020B1FA8E
:1003B00081F308BF2033A3F10B03B3F120020CDA61
:1003C0000C3208DD02F1140CC2F10C0201FA0CF03F
:1003D00021FA02F10CE002F11402D8BFC2F1200CA4
:1003E00001FA02F120FA0CFCDCBF41EA0C0190405A
:1003F000E41AA2BF01EB0451294330BD6FEA0404A3
:100400001F3C1CDA0C340EDC04F11404C4F120028D
:1004100020FA04F001FA02F340EA030021FA04F39F
:1004200045EA030130BDC4F10C04C4F1200220FAF6
:1004300002F001FA04F340EA0300294630BD21FA34
:1004400004F0294630BD94F0000F83F4801306BFFA
:1004500081F480110134013D4EE77FEA645C18BFEE
:100460007FEA655C29D094EA050F08BF90EA020F85
:1004700005D054EA000C04BF1946104630BD91EA7D
:10048000030F1EBF0021002030BD5FEA545C05D180
:100490004000494128BF41F0004130BD14F58004BF
:1004A0003CBF01F5801130BD01F0004545F0FE4133
:1004B00041F470014FF0000030BD7FEA645C1ABF68
:1004C000194610467FEA655C1CBF0B46024650EA9F
:1004D000013406BF52EA033591EA030F41F40021CB
:1004E00030BD00BF90F0000F04BF0021704730B551
:1004F0004FF4806404F132044FF000054FF0000126
:1005000050E700BF90F0000F04BF0021704730B5E6
:100510004FF4806404F1320410F0004548BF4042BB
:100520004FF000013EE700BF42004FEAE2014FEA10
:1005300031014FEA02701FBF12F07F4393F07F4FEB
:1005400081F06051704732F07F4208BF704793F0EE
:100550007F4F04BF41F40021704730B54FF4607401
:1005600001F0004521F000411CE700BF50EA010204
:1005700008BF704730B54FF000050AE050EA0102AD
:1005800008BF704730B511F0004502D5404261EB1D
:1005900041014FF4806404F132045FEA915C3FF45E
:1005A000D8AE4FF003025FEADC0C18BF03325FEAFB
:1005B000DC0C18BF033202EBDC02C2F1200300FAAC
:1005C00003FC20FA02F001FA03FE40EA0E0021FAD1
:1005D00002F11444BDE600BF70B54FF0FF0C4CF4BF
:1005E000E06C1CEA11541DBF1CEA135594EA0C0F71
:1005F00095EA0C0F00F0DEF82C4481EA030621EAAC
:100600004C5123EA4C5350EA013518BF52EA0335E6
:1006100041F4801143F4801338D0A0FB02CE4FF098
:100620000005E1FB02E506F00042E0FB03E54FF0C8
:100630000006E1FB03569CF0000F18BF4EF0010EC0
:10064000A4F1FF04B6F5007F64F5407404D25FEABC
:100650004E0E6D4146EB060642EAC62141EA55516F
:100660004FEAC52040EA5E504FEACE2EB4F1FD0CB1
:1006700088BFBCF5E06F1ED8BEF1004F08BF5FEA2F
:10068000500E50F1000041EB045170BD06F00046E1
:1006900046EA010140EA020081EA0301B4EB5C048E
:1006A000C2BFD4EB0C0541EA045170BD41F4801186
:1006B0004FF0000E013C00F3AB8014F1360FDEBFAB
:1006C000002001F0004170BDC4F10004203C35DA87
:1006D0000C341BDC04F11404C4F1200500FA05F30A
:1006E00020FA04F001FA05F240EA020001F00042AB
:1006F00021F0004110EBD37021FA04F642EB060121
:100700005EEA430E08BF20EAD37070BDC4F10C044A
:10071000C4F1200500FA04F320FA05F001FA04F20E
:1007200040EA020001F0004110EBD37041F10001FA
:100730005EEA430E08BF20EAD37070BDC4F1200505
:1007400000FA05F24EEA020E20FA04F301FA05F26D
:1007500043EA020321FA04F001F0004121FA04F215
:1007600020EA020000EBD3705EEA430E08BF20EAE5
:10077000D37070BD94F0000F0FD101F0004640001F
:1007800041EB010111F4801F08BF013CF7D041EAA1
:10079000060195F0000F18BF704703F000465200A5
:1007A00043EB030313F4801F08BF013DF7D043EA76
:1007B0000603704794EA0C0F0CEA135518BF95EA2C
:1007C0000C0F0CD050EA410618BF52EA4306D1D1B3
:1007D00081EA030101F000414FF0000070BD50EAD2
:1007E000410606BF1046194652EA430619D094EA5C
:1007F0000C0F02D150EA013613D195EA0C0F05D146
:1008000052EA03361CBF104619460AD181EA030199
:1008100001F0004141F0FE4141F470014FF0000051
:1008200070BD41F0FE4141F4780170BD70B54FF0EC
:10083000FF0C4CF4E06C1CEA11541DBF1CEA13556C
:1008400094EA0C0F95EA0C0F00F0A7F8A4EB05044E
:1008500081EA030E52EA03354FEA013100F0888045
:100860004FEA03334FF0805545EA131343EA12630E
:100870004FEA022245EA111545EA10654FEA0026C3
:100880000EF000419D4208BF964244F1FD0404F57C
:10089000407402D25B084FEA3202B61A65EB0305D8
:1008A0005B084FEA32024FF480104FF4002CB6EB95
:1008B000020E75EB030E22BFB61A754640EA0C0015
:1008C0005B084FEA3202B6EB020E75EB030E22BF55
:1008D000B61A754640EA5C005B084FEA3202B6EB96
:1008E000020E75EB030E22BFB61A754640EA9C0055
:1008F0005B084FEA3202B6EB020E75EB030E22BF25
:10090000B61A754640EADC0055EA060E18D04FEAE2
:10091000051545EA16754FEA06164FEAC30343EA82
:1009200052734FEAC2025FEA1C1CC0D111F4801F4F
:100930000BD141EA00014FF000004FF0004CB6E748
:1009400011F4801F04BF01430020B4F1FD0C88BFE7
:10095000BCF5E06F3FF6AFAEB5EB030C04BFB6EBF2
:10096000020C5FEA500C50F1000041EB045170BDE5
:100970000EF0004E4EEA113114EB5C04C2BFD4EB12
:100980000C0541EA045170BD41F480114FF0000E96
:10099000013C90E645EA060E8DE60CEA135594EA12
:1009A0000C0F08BF95EA0C0F3FF43BAF94EA0C0F15
:1009B0000AD150EA01347FF434AF95EA0C0F7FF48A
:1009C00025AF104619462CE795EA0C0F06D152EADE
:1009D00003353FF4FDAE1046194622E750EA4106C2
:1009E00018BF52EA43067FF4C5AE50EA41047FF4D3
:1009F0000DAF52EA43057FF4EBAE12E74FF0FF3C38
:100A000006E000BF4FF0010C02E000BF4FF0010C08
:100A10004DF804CD4FEA410C7FEA6C5C4FEA430C81
:100A200018BF7FEA6C5C1BD001B050EA410C0CBFD0
:100A300052EA430C91EA030F02BF90EA020F002032
:100A4000704710F1000F91EA030F58BF994208BF99
:100A500090422CBFD8176FEAE37040F00100704756
:100A60004FEA410C7FEA6C5C02D150EA013C07D1AD
:100A70004FEA430C7FEA6C5CD6D152EA033CD3D0F8
:100A80005DF8040B704700BF8446104662468C46F2
:100A90001946634600E000BF01B5FFF7B7FF002825
:100AA00048BF10F1000F01BD4DF808EDFFF7F4FF4E
:100AB0000CBF012000205DF808FB00BF4DF808EDD9
:100AC000FFF7EAFF34BF012000205DF808FB00BFFC
:100AD0004DF808EDFFF7E0FF94BF012000205DF81E
:100AE00008FB00BF4DF808EDFFF7CEFF94BF0120D3
:100AF00000205DF808FB00BF4DF808EDFFF7C4FFCC
:100B000034BF012000205DF808FB00BF4FEA410C14
:100B10007FEA6C5C02D150EA013C0AD14FEA430CF7
:100B20007FEA6C5C02D152EA033C02D14FF0000034
:100B300070474FF0010070474FEA410212F5001272
:100B400015D211D56FF47873B3EB625212D94FEA14
:100B5000C12343F0004343EA505311F0004F23FAFE
:100B600002F018BF404270474FF00000704750EA53
:100B7000013005D111F0004008BF6FF00040704710
:100B80004FF00000704700BF10B5054C237833B913
:100B9000044B13B10448AFF300800123237010BD50
:100BA000E8010020000000002859000808B5034BA8
:100BB0001BB103490348AFF3008008BD00000000EB
:100BC000EC01002028590008364AD2F8003843F4D6
:100BD0008033C2F8003800230133324AD2F80028AB
:100BE00012F4003F03D14FF6FF729342F4D12D4B24
:100BF000D3F8003813F4003F00D1FEE7294BD3F8B7
:100C0000402842F08052C3F8402827490A6842F43D
:100C100040420A60D3F80828C3F80828D3F8082807
:100C200042F40042C3F80828D3F8082842F4A0523E
:100C3000C3F808281D4AC3F80428D3F8002842F056
:100C40008072C3F80028174BD3F8003813F0007FE8
:100C5000F9D0154A136843F480331360124B5B6874
:100C600013F4803FFAD0104A136843F40033136042
:100C70000D4B5B6813F4003FFAD00A4BD3F80828F9
:100C800022F00302C3F80828D3F8082842F0020231
:100C9000C3F80828034BD3F8083813F0080FF9D02D
:100CA000704700BF003002400070004019644009E6
:100CB00008B5FFF789FF08BD00B583B0284AD2F810
:100CC000003843F00103C2F80038254BD3F8003850
:100CD00013F0020FF9D0224AD2F8083843F080030B
:100CE000C2F808380023019302E0019B013301930D
:100CF000019B4F2BF9D91A4AD2F8083843F09003D8
:100D0000C2F808380023019302E0019B01330193EC
:100D1000019B4F2BF9D9124BD3F8082822F003027C
:100D2000C3F80828D3F8002822F0847222F4803215
:100D3000C3F80028D3F8002822F48022C3F8002842
:100D40000022C3F80828D3F808180649C3F8041885
:100D5000C3F80C28FFF7ACFF03B05DF804FB00BF3D
:100D60000030024010300024F0B50568C6684FF02E
:100D7000000C03E00CF1010C1FFA8CFCBCF10F0F0E
:100D800018D84FF0010E0EFA0CFE1EEA030FF1D038
:100D90004FEA4C044FF0030E0EFA04FE25EA0E054E
:100DA00001FA04F73D4326EA0E0E02FA04F444EA7F
:100DB0000E06DFE70560C660F0BD10B5012906D05C
:100DC000416821EA030141608468002105E041682F
:100DD00019434160F8E7013189B20F2913D84FF068
:100DE000010C0CFA01FC1CEA030FF4D04FEA410C91
:100DF0004FF0030E0EFA0CFE24EA0E0402FA0CFC6D
:100E00004CEA0404E7E7846010BD816170478162A9
:100E1000704730B5046A456A002301E001339BB294
:100E2000072B13D84FF0010C0CFA03FC1CEA020F3D
:100E3000F4D04FEA830E4FF00F0C0CFA0EFC24EAAC
:100E40000C0401FA0EFE4EEA0404E7E7082301E071
:100E500001339BB20F2B15D84FF0010C0CFA03FC99
:100E60001CEA020FF4D0A3F1080C4FEA8C0C4FF0EF
:100E70000F0E0EFA0CFE25EA0E0501FA0CFC4CEAE8
:100E80000505E5E70462456230BD830903F180434F
:100E900003F50E331A6800F01F00012181400A4358
:100EA0001A607047830903F1804303F50E331A6813
:100EB00000F01F00012181400A431A607047830936
:100EC00003F1804303F50E331A6800F01F0001217F
:100ED000814022EA01021A607047000010B588B014
:100EE0008446344C94E80F000DF1200E0EE90F00FB
:100EF00002AB103494E8030083E803006B4683E8F8
:100F000003002D4BD3F80838C3F38103012B1FD006
:100F1000022B1FD1284AD2F8044804F03F04D2F82B
:100F20000418C1F38811D2F80438C3F30143013324
:100F30005B00D2F8042812F4800F07D01F48B0FBE2
:100F4000F4F001FB00F0B0FBF3F004E01C48F6E71E
:100F50001A4800E01A481849D1F80838C3F30313B7
:100F600020336B4413F8102C20FA02F2D1F8083821
:100F7000C3F3822320336B4413F8183C22FA03F4A2
:100F8000D1F80838C3F3423320336B4413F8203CC4
:100F900022FA03F3BCF1030F03D8DFE80CF00504D9
:100FA0000709002000E0104608B010BD2046FBE70E
:100FB0001846F9E7405900080030024040787D01AA
:100FC0000024F40008B5334B98425AD021D8A3F539
:100FD000305398424CD00BD92F4B98423ED140F61B
:100FE0001400FFF75FFF40F61400FFF768FF35E0DD
:100FF000A3F50063984232D003F5806398422DD167
:1010000040F61200FFF74EFF40F61200FFF757FFC1
:1010100024E0224B984219D003F58063984208D10E
:1010200040F60510FFF73EFF40F60510FFF747FFBB
:1010300014E0A3F51843984210D140F61F00FFF7C3
:1010400031FF40F61F00FFF73AFF07E040F60410BB
:10105000FFF728FF40F60410FFF731FF08BD40F608
:101060001100FFF71FFF40F61100FFF728FFF5E71B
:1010700040F61300FFF716FF40F61300FFF71FFFBF
:10108000ECE740F61E00FFF70DFF40F61E00FFF7ED
:1010900016FFE3E7007800400050004000100140D8
:1010A00038B504460D462E4B98424DD02BD8A3F5AB
:1010B0003053984244D006D92A4B984211D102208D
:1010C000FFF70CFF0EE0A3F50063984234D003F560
:1010D0008063984203D10220FFF700FF02E0002066
:1010E00000E00020E36813F4004F31D06B0803EBFD
:1010F0004003B3FBF5F34FF6F0721A40C3F342031B
:101100001343A36038BD184B984211D003F5806398
:10111000984203D10320FFF7E1FEE3E7A3F518436C
:10112000984203D10220FFF7D9FEDBE70020D9E780
:101130000320FFF7D3FED5E70220FFF7CFFED1E76C
:101140000220FFF7CBFECDE70220FFF7C7FEC9E77D
:1011500000EB5500B0FBF5F080B2A060D2E700BF15
:10116000007800400050004000100140C36843F484
:101170000053C3607047C36823F008030B43C36088
:101180007047C36823F004030B43C360704700003B
:10119000F0B4026802F1A052D20013682B4C1C403C
:1011A000036BC16A41EA4303856A2B43456A43EAFC
:1011B0000523056A2B43C56943EA852385692B43CB
:1011C000456943EA0533056943EA4533856843EADF
:1011D0008533C66843EAC633466833432343466BC8
:1011E000B469776944EA0714376944EA0724F76861
:1011F00044EA0744B7683C4377683C433668344365
:10120000082911D0012D12D06FF0704113600368CE
:10121000DB0003F120435C600368DB0003F1204343
:10122000C3F80411F0BC704743F04003EAE7856B54
:10123000A9696E6941EA06112E6941EA0621EE6844
:1012400041EA06412D682943E0E700BF8100F7FF2E
:1012500000F1A050C000036843F001030360704731
:1012600010B54FF44060FFF710FE074C0223002238
:1012700011462046FFF778FD02231A46002120463A
:10128000FFF79BFD10BD00BF0000024010B540F607
:101290000340FFF7FAFD194C80230022012120466C
:1012A000FFF762FD8023022200212046FFF785FD23
:1012B00040F60440FFF7E9FD04F5806408230022AE
:1012C00001212046FFF750FD08230222002120467D
:1012D000FFF773FD40F60640FFF7D7FD04F5006405
:1012E0000823002201212046FFF73EFD08230222A9
:1012F00000212046FFF761FD10BD00BF000C024039
:1013000010B540F60340FFF7C0FD0F4C4FF40053FB
:10131000012211462046FFF727FD4FF40053022219
:1013200000212046FFF749FD4FF4805300220121A0
:101330002046FFF719FD4FF480530222002120467A
:10134000FFF73BFD10BD00BF000C024070B59EB022
:1013500040F60340FFF799FD40F60440FFF795FD86
:1013600040F60640FFF791FD394E4CF233720C21E6
:101370003046FFF74EFD374D4FF680720C21284660
:10138000FFF747FD344C41F201020C212046FFF7E4
:1013900040FD4CF23373012202213046FFF7E4FC9A
:1013A0004CF23373022200213046FFF706FD4FF660
:1013B0008073012202212846FFF7D6FC4FF6807386
:1013C000022200212846FFF7F8FC41F20103012226
:1013D00002212046FFF7C8FC41F20103022200214E
:1013E0002046FFF7EAFC4FF46060FFF74EFD002354
:1013F000089309934FF480120A920B9348210C91A1
:101400000D9312210E9101930293039204930422EF
:1014100005920693032407940F941B931A931022AA
:1014200019921893179312931693159301221492FD
:1014300013931192109308AB1C9301AB1D930FA84B
:10144000FFF7A6FE2046FFF703FF1EB070BD00BFEA
:10145000000C02400010024000180240014BA3F8AB
:10146000FE0070470007006C014BA3F800017047B5
:101470000007006C024BA3F8FE00A3F800117047B0
:101480000007006C024B1A89024BA3F8FE2070473C
:10149000100200200007006C014BA3F80001704708
:1014A0000007006C014BB3F8000170470007006CA7
:1014B00006E000BF00BF00BF00BF00BF00BF18466E
:1014C000431E9BB20028F4D1704708B5FFF7C6FF52
:1014D0000520FFF7EDFFFFF7E5FF03029BB218437E
:1014E00080B208BD38B5322001F020FA0121002079
:1014F000FFF7C0FF322001F019FA0020FFF7E5FFE7
:101500001E4CA0801E4D4FF480512846FFF77DFCF5
:101510000A2001F00BFA4FF480512846FFF777FCC0
:10152000322001F003FA4FF480512846FFF76DFC9A
:10153000782001F0FBF94FF45A40FFF78FFFFFF7D7
:10154000B1FFA0804FF45B40FFF788FFFFF7AAFFD1
:10155000A0800002A0804FF45C40FFF77FFFFFF700
:10156000A1FFA188014389B2A180064801F096FF3E
:10157000A2880549054802F001F838BD1002002094
:10158000000C02405859000870590008040200205D
:10159000084B4FF4F0721A804FF448725A804FF49F
:1015A00028525A814FF42C529A814FF430521A81AA
:1015B000704700BF1002002008B555214FF470405D
:1015C000FFF758FFAA214FF20100FFF753FF522106
:1015D0004FF20200FFF74EFF08214FF20300FFF722
:1015E00049FF01214FF20400FFF744FF0D214FF4A2
:1015F0003040FFF73FFF0D214BF20100FFF73AFFAC
:101600000D214BF20200FFF735FF34214FF4364035
:10161000FFF730FF34214BF20160FFF72BFF34213D
:101620004BF20260FFF726FF0D214FF43140FFF728
:1016300021FF0D214BF20110FFF71CFF0D214BF292
:101640000210FFF717FF34214FF43740FFF712FF66
:1016500034214BF20170FFF70DFF34214BF2027081
:10166000FFF708FF00214FF43240FFF703FF00218E
:101670004BF20120FFF7FEFE00214BF20220FFF7A4
:10168000F9FE24214FF43840FFF7F4FE24214BF6F5
:101690000100FFF7EFFE24214BF60200FFF7EAFE00
:1016A00001214FF43F40FFF7E5FE0F214FF4334097
:1016B000FFF7E0FE0F214BF20130FFF7DBFE0F21B9
:1016C0004BF20230FFF7D6FE34214FF43940FFF7DA
:1016D000D1FE34214BF60110FFF7CCFE34214BF63E
:1016E0000210FFF7C7FE08214FF43540FFF7C2FE96
:1016F00008214BF20150FFF7BDFE08214BF20250CA
:10170000FFF7B8FE03214FF44240FFF7B3FE242158
:101710004FF43A40FFF7AEFE24214BF60120FFF7CD
:10172000A9FE24214BF60220FFF7A4FE00214FF46E
:101730003C40FFF79FFE78214BF60140FFF79AFEF1
:1017400000214BF60240FFF795FE00214FF43D408B
:10175000FFF790FE78214BF60150FFF78BFE00213A
:101760004BF60250FFF786FE00214FF43E40FFF794
:1017700081FE64214BF60160FFF77CFE00214FF4EF
:101780005140FFF777FE33214DF20110FFF772FE53
:1017900000214DF20210FFF76DFE34214DF20310CF
:1017A000FFF768FE00214DF20410FFF763FE3A21B7
:1017B0004DF20510FFF75EFE00214DF20610FFF717
:1017C00059FE4A214DF20710FFF754FE00214DF259
:1017D0000810FFF74FFE5C214DF20910FFF74AFE9B
:1017E00000214DF20A10FFF745FE81214DF20B104A
:1017F000FFF740FE00214DF20C10FFF73BFEA62143
:101800004DF20D10FFF736FE00214DF20E10FFF7DE
:1018100031FEE5214DF20F10FFF72CFE01214DF2B4
:101820001010FFF727FE13214DF21110FFF722FED3
:1018300001214DF21210FFF71DFE54214DF213103D
:10184000FFF718FE01214DF21410FFF713FE82215D
:101850004DF21510FFF70EFE01214DF21610FFF7A5
:1018600009FECA214DF21710FFF704FE02214DF2C6
:101870001810FFF7FFFD00214DF21910FFF7FAFDD8
:1018800002214DF21A10FFF7F5FD01214DF21B1058
:10189000FFF7F0FD02214DF21C10FFF7EBFD3421A4
:1018A0004DF21D10FFF7E6FD02214DF21E10FFF76D
:1018B000E1FD67214DF21F10FFF7DCFD02214DF223
:1018C0002010FFF7D7FD84214DF22110FFF7D2FD44
:1018D00002214DF22210FFF7CDFDA4214DF223107D
:1018E000FFF7C8FD02214DF22410FFF7C3FDB72119
:1018F0004DF22510FFF7BEFD02214DF22610FFF735
:10190000B9FDCF214DF22710FFF7B4FD02214DF2B2
:101910002810FFF7AFFDDE214DF22910FFF7AAFDD9
:1019200002214DF22A10FFF7A5FDF2214DF22B10F6
:10193000FFF7A0FD02214DF22C10FFF79BFDFE21C9
:101940004DF22D10FFF796FD03214DF22E10FFF7FB
:1019500091FD10214DF22F10FFF78CFD03214DF268
:101960003010FFF787FD33214DF23110FFF782FD74
:1019700003214DF23210FFF77DFD6D214DF2331042
:10198000FFF778FD00214FF45240FFF773FD33213C
:101990004DF20120FFF76EFD00214DF20220FFF70E
:1019A00069FD34214DF20320FFF764FD00214DF263
:1019B0000420FFF75FFD3A214DF20520FFF75AFDA5
:1019C00000214DF20620FFF755FD4A214DF2072078
:1019D000FFF750FD00214DF20820FFF74BFD5C2181
:1019E0004DF20920FFF746FD00214DF20A20FFF7D6
:1019F00041FD81214DF20B20FFF73CFD00214DF20E
:101A00000C20FFF737FDA6214DF20D20FFF732FD28
:101A100000214DF20E20FFF72DFDE5214DF20F20A4
:101A2000FFF728FD01214DF21020FFF723FD1321C0
:101A30004DF21120FFF71EFD01214DF21220FFF79C
:101A400019FD54214DF21320FFF714FD01214DF231
:101A50001420FFF70FFD82214DF21520FFF70AFD3C
:101A600001214DF21620FFF705FDCA214DF2172086
:101A7000FFF700FD02214DF21820FFF7FBFC0021CB
:101A80004DF21920FFF7F6FC02214DF21A20FFF764
:101A9000F1FC01214DF21B20FFF7ECFC02214DF27D
:101AA0001C20FFF7E7FC34214DF21D20FFF7E2FC7C
:101AB00002214DF21E20FFF7DDFC67214DF21F20B1
:101AC000FFF7D8FC02214DF22020FFF7D3FC842140
:101AD0004DF22120FFF7CEFC02214DF22220FFF72C
:101AE000C9FCA4214DF22320FFF7C4FC02214DF2D2
:101AF0002420FFF7BFFCB7214DF22520FFF7BAFCE9
:101B000002214DF22620FFF7B5FCCF214DF2272010
:101B1000FFF7B0FC02214DF22820FFF7ABFCDE21DD
:101B20004DF22920FFF7A6FC02214DF22A20FFF7F3
:101B3000A1FCF2214DF22B20FFF79CFC02214DF27B
:101B40002C20FFF797FCFE214DF22D20FFF792FC91
:101B500003214DF22E20FFF78DFC10214DF22F2096
:101B6000FFF788FC03214DF23020FFF783FC33217F
:101B70004DF23120FFF77EFC03214DF23220FFF7BA
:101B800079FC6D214DF23320FFF774FC00214FF4F6
:101B90005340FFF76FFC33214DF20130FFF76AFC31
:101BA00000214DF20230FFF765FC34214DF2033085
:101BB000FFF760FC00214DF20430FFF75BFC3A2197
:101BC0004DF20530FFF756FC00214DF20630FFF7CD
:101BD00051FC4A214DF20730FFF74CFC00214DF239
:101BE0000830FFF747FC5C214DF20930FFF742FC5B
:101BF00000214DF20A30FFF73DFC81214DF20B3000
:101C0000FFF738FC00214DF20C30FFF733FCA62122
:101C10004DF20D30FFF72EFC00214DF20E30FFF794
:101C200029FCE5214DF20F30FFF724FC01214DF294
:101C30001030FFF71FFC13214DF21130FFF71AFC93
:101C400001214DF21230FFF715FC54214DF21330F3
:101C5000FFF710FC01214DF21430FFF70BFC82213D
:101C60004DF21530FFF706FC01214DF21630FFF75B
:101C700001FCCA214DF21730FFF7FCFB02214DF2A7
:101C80001830FFF7F7FB00214DF21930FFF7F2FB98
:101C900002214DF21A30FFF7EDFB01214DF21B300E
:101CA000FFF7E8FB02214DF21C30FFF7E3FB342184
:101CB0004DF21D30FFF7DEFB02214DF21E30FFF723
:101CC000D9FB67214DF21F30FFF7D4FB02214DF203
:101CD0002030FFF7CFFB84214DF22130FFF7CAFB04
:101CE00002214DF22230FFF7C5FBA4214DF2233033
:101CF000FFF7C0FB02214DF22430FFF7BBFBB721F9
:101D00004DF22530FFF7B6FB02214DF22630FFF7EA
:101D1000B1FBCF214DF22730FFF7ACFB02214DF292
:101D20002830FFF7A7FBDE214DF22930FFF7A2FB99
:101D300002214DF22A30FFF79DFBF2214DF22B30AC
:101D4000FFF798FB02214DF22C30FFF793FBFE21A9
:101D50004DF22D30FFF78EFB03214DF22E30FFF7B1
:101D600089FB10214DF22F30FFF784FB03214DF248
:101D70003030FFF77FFB33214DF23130FFF77AFB34
:101D800003214DF23230FFF775FB6D214DF23330F8
:101D9000FFF770FB00214FF45440FFF76BFB33213A
:101DA0004DF20140FFF766FB00214DF20240FFF7C4
:101DB00061FB34214DF20340FFF75CFB00214DF243
:101DC0000440FFF757FB3A214DF20540FFF752FB65
:101DD00000214DF20640FFF74DFB4A214DF207402E
:101DE000FFF748FB00214DF20840FFF743FB5C2161
:101DF0004DF20940FFF73EFB00214DF20A40FFF78C
:101E000039FB81214DF20B40FFF734FB00214DF2ED
:101E10000C40FFF72FFBA6214DF20D40FFF72AFBE8
:101E200000214DF20E40FFF725FBE5214DF20F405A
:101E3000FFF720FB01214DF21040FFF71BFB1321A0
:101E40004DF21140FFF716FB01214DF21240FFF752
:101E500011FB54214DF21340FFF70CFB01214DF211
:101E60001440FFF707FB82214DF21540FFF702FBFC
:101E700001214DF21640FFF7FDFACA214DF217403D
:101E8000FFF7F8FA02214DF21840FFF7F3FA0021AC
:101E90004DF21940FFF7EEFA02214DF21A40FFF71A
:101EA000E9FA01214DF21B40FFF7E4FA02214DF25D
:101EB0001C40FFF7DFFA34214DF21D40FFF7DAFA3C
:101EC00002214DF21E40FFF7D5FA67214DF21F4067
:101ED000FFF7D0FA02214DF22040FFF7CBFA842120
:101EE0004DF22140FFF7C6FA02214DF22240FFF7E2
:101EF000C1FAA4214DF22340FFF7BCFA02214DF2B2
:101F00002440FFF7B7FAB7214DF22540FFF7B2FAA8
:101F100002214DF22640FFF7ADFACF214DF22740C6
:101F2000FFF7A8FA02214DF22840FFF7A3FADE21BD
:101F30004DF22940FFF79EFA02214DF22A40FFF7A9
:101F400099FAF2214DF22B40FFF794FA02214DF25B
:101F50002C40FFF78FFAFE214DF22D40FFF78AFA51
:101F600003214DF22E40FFF785FA10214DF22F404C
:101F7000FFF780FA03214DF23040FFF77BFA33215F
:101F80004DF23140FFF776FA03214DF23240FFF770
:101F900071FA6D214DF23340FFF76CFA00214FF4D6
:101FA0005540FFF767FA33214DF20150FFF762FA0F
:101FB00000214DF20250FFF75DFA34214DF203503B
:101FC000FFF758FA00214DF20450FFF753FA3A2177
:101FD0004DF20550FFF74EFA00214DF20650FFF783
:101FE00049FA4A214DF20750FFF744FA00214DF219
:101FF0000850FFF73FFA5C214DF20950FFF73AFA1B
:1020000000214DF20A50FFF735FA81214DF20B50B5
:10201000FFF730FA00214DF20C50FFF72BFAA62102
:102020004DF20D50FFF726FA00214DF20E50FFF74A
:1020300021FAE5214DF20F50FFF71CFA01214DF274
:102040001050FFF717FA13214DF21150FFF712FA53
:1020500001214DF21250FFF70DFA54214DF21350A9
:10206000FFF708FA01214DF21450FFF703FA82211D
:102070004DF21550FFF7FEF901214DF21650FFF712
:10208000F9F9CA214DF21750FFF7F4F902214DF288
:102090001850FFF7EFF900214DF21950FFF7EAF958
:1020A00002214DF21A50FFF7E5F901214DF21B50C4
:1020B000FFF7E0F902214DF21C50FFF7DBF9342164
:1020C0004DF21D50FFF7D6F902214DF21E50FFF7D9
:1020D000D1F967214DF21F50FFF7CCF902214DF2E3
:1020E0002050FFF7C7F984214DF22150FFF7C2F9C4
:1020F00002214DF22250FFF7BDF9A4214DF22350E9
:10210000FFF7B8F902214DF22450FFF7B3F9B721D8
:102110004DF22550FFF7AEF902214DF22650FFF7A0
:10212000A9F9CF214DF22750FFF7A4F902214DF272
:102130002850FFF79FF9DE214DF22950FFF79AF959
:1021400002214DF22A50FFF795F9F2214DF22B5062
:10215000FFF790F902214DF22C50FFF78BF9FE2189
:102160004DF22D50FFF786F903214DF22E50FFF767
:1021700081F910214DF22F50FFF77CF903214DF228
:102180003050FFF777F933214DF23150FFF772F9F4
:1021900003214DF23250FFF76DF96D214DF23350AE
:1021A000FFF768F900214FF45640FFF763F9332138
:1021B0004DF20160FFF75EF900214DF20260FFF77A
:1021C00059F934214DF20360FFF754F900214DF223
:1021D0000460FFF74FF93A214DF20560FFF74AF925
:1021E00000214DF20660FFF745F94A214DF20760E4
:1021F000FFF740F900214DF20860FFF73BF95C2141
:102200004DF20960FFF736F900214DF20A60FFF741
:1022100031F981214DF20B60FFF72CF900214DF2CD
:102220000C60FFF727F9A6214DF20D60FFF722F9A8
:1022300000214DF20E60FFF71DF9E5214DF20F6010
:10224000FFF718F901214DF21060FFF713F9132180
:102250004DF21160FFF70EF901214DF21260FFF708
:1022600009F954214DF21360FFF704F901214DF2F1
:102270001460FFF7FFF882214DF21560FFF7FAF8BE
:1022800001214DF21660FFF7F5F8CA214DF21760F3
:10229000FFF7F0F802214DF21860FFF7EBF800218C
:1022A0004DF21960FFF7E6F802214DF21A60FFF7D0
:1022B000E1F801214DF21B60FFF7DCF802214DF23D
:1022C0001C60FFF7D7F834214DF21D60FFF7D2F8FC
:1022D00002214DF21E60FFF7CDF867214DF21F601D
:1022E000FFF7C8F802214DF22060FFF7C3F8842100
:1022F0004DF22160FFF7BEF802214DF22260FFF798
:10230000B9F8A4214DF22360FFF7B4F802214DF291
:102310002460FFF7AFF8B7214DF22560FFF7AAF868
:1023200002214DF22660FFF7A5F8CF214DF227607C
:10233000FFF7A0F802214DF22860FFF79BF8DE219D
:102340004DF22960FFF796F802214DF22A60FFF75F
:1023500091F8F2214DF22B60FFF78CF802214DF23B
:102360002C60FFF787F8FE214DF22D60FFF782F811
:1023700003214DF22E60FFF77DF810214DF22F6002
:10238000FFF778F803214DF23060FFF773F833213F
:102390004DF23160FFF76EF803214DF23260FFF726
:1023A00069F86D214DF23360FFF764F855214FF461
:1023B0007040FFF75FF8AA214FF20100FFF75AF8CB
:1023C00052214FF20200FFF755F808214FF20300A7
:1023D000FFF750F800214FF20400FFF74BF8CC2133
:1023E0004FF43140FFF746F800214BF20110FFF7A0
:1023F00041F805214FF43640FFF73CF870214FF4C7
:102400003740FFF737F870214BF20170FFF732F8D1
:1024100001214FF43840FFF72DF803214BF601005E
:10242000FFF728F803214BF60200FFF723F80321FA
:102430004BF60300FFF71EF802214FF43C40FFF774
:1024400019F800214BF60140FFF714F800214BF674
:102450000240FFF70FF8D0214FF44940FFF70AF888
:1024600002214CF60110FFF705F850214CF602103E
:10247000FFF700F850214CF60310FEF7FBFF502148
:102480004CF60410FEF7F6FF00214FF45450FEF70F
:10249000F1FF55214FF46850FEF7ECFF4FF48850E0
:1024A000FEF7DCFF782000F041FA4FF42450FEF7ED
:1024B000D5FF08BD2DE9F04180460F4616461D4662
:1024C000214C6089FEF7CAFFC8F30F20FEF7CCFF4E
:1024D0006089013080B2FEF7C1FF5FFA88F0FEF735
:1024E000C3FF6089023080B2FEF7B8FFC7F30F2048
:1024F000FEF7BAFF6089033080B2FEF7AFFFF8B293
:10250000FEF7B2FFA089FEF7A9FFC6F30F20FEF782
:10251000ABFFA089013080B2FEF7A0FFF0B2FEF75A
:10252000A3FFA089023080B2FEF798FFC5F30F2009
:10253000FEF79AFFA089033080B2FEF78FFFE8B262
:10254000FEF792FFBDE8F0811002002070B505464D
:10255000094B19885B8801FB03F600221046FFF740
:10256000A9FFFEF78FFF002403E02846FEF794FF43
:102570000134B442F9D370BD1002002010B5013807
:10258000062805D8DFE800F01206080A0C0E100035
:1025900000210CE040210AE0C02108E0202106E0F3
:1025A000602104E0A02102E0E02100E080214FF45E
:1025B0005850FEF75FFF244C6089FEF74FFF002064
:1025C000FEF752FF6089013080B2FEF747FF00201E
:1025D000FEF74AFF6089023080B2FEF73FFF208895
:1025E0000138C0F30F20FEF73FFF6089033080B24F
:1025F000FEF734FF20880138C0B2FEF735FFA0890E
:10260000FEF72CFF0020FEF72FFFA089013080B2DB
:10261000FEF724FF0020FEF727FFA089023080B2DA
:10262000FEF71CFF60880138C0F30F20FEF71CFF87
:10263000A089033080B2FEF711FF60880138C0B274
:10264000FEF712FF10BD00BF1002002008B5FEF714
:1026500057FEFEF77BFEFEF745FFFEF799FFFEF7FC
:10266000ABFF0020FFF78AFF4FF6FF70FFF76EFF0A
:102670004FF400510148FEF7C8FB08BD000C0240B2
:10268000F8B506460D461746114C6089FEF7E6FE82
:10269000300AFEF7E9FE6089013080B2FEF7DEFE07
:1026A000F0B2FEF7E1FEA089FEF7D8FE280AFEF799
:1026B000DBFEA089013080B2FEF7D0FEE8B2FEF763
:1026C000D3FE2289034BA3F8FE20A3F80071F8BDC6
:1026D000100200200007006C2DE9F04F83B0814606
:1026E00088461F469DF830A013F0070318BF01234A
:1026F00003EBD7034FEA570B1BFB03FB5FFA8BF38C
:102700000193203AD1B244464FF0000B44E001EB74
:1027100041002D4B03EB800313F80B504CE02B4B87
:1027200003EB011313F80B5046E0294B1A8821469E
:102730004846FFF7A5FF6D00EDB20134A4B2254B6A
:102740005B88A3423DD9A4EB0803BB4210D00136FD
:10275000F6B2072E19D815F0800FE6D1BAF1000FA6
:10276000E9D11D4B1A8821464846FFF789FFE2E769
:102770005946DDF800B009F101091FFA89F9154B36
:102780001B884B451DD9444602E05946DDF800B090
:102790000BF101025FFA82FB019B9B4511D20C2FCA
:1027A000B5D0102FBBD0182F0BD101EBC1000B4BB4
:1027B00003EB800313F80B500026CDF800B08B46D6
:1027C000C7E703B0BDE8F08FC86C0008D866000802
:1027D0001E02002010020020040000207C59000886
:1027E0002DE9F04F83B082460D469DF830709DF87C
:1027F00034B00E9E02441FFA82F90B441FFA83F88C
:1028000004460CE0454517D2CDF800B03B462946BA
:102810002046FFF761FF04EB5704A4B2013632787B
:10282000A2F12003DBB25E2B06D84C45EAD35FFA57
:102830008AF43D44ADB2E5E703B0BDE8F08F000097
:1028400010B54FF44060FEF720FB41F20410FEF794
:102850001CFB1F4C4FF4007207212046FEF7D9FAEB
:102860004FF4806207212046FEF7D3FA4FF400733D
:10287000012202212046FEF777FA4FF4007302226C
:1028800000212046FEF799FA4FF4806301220221CD
:102890002046FEF769FA4FF48063022200212046A9
:1028A000FEF78BFAA4F570442046FEF78BFB4FF43D
:1028B000E1312046FEF7F4FB04212046FEF761FCDF
:1028C00008212046FEF757FC2046FEF74FFC10BDBE
:1028D000000002407047FEE7FEE7FEE7FEE77047B4
:1028E0007047704708B500F02BF808BD0C4B1B680B
:1028F0000C4AA2FB03239B09013BB3F1807F0DD25D
:102900004FF0E0225361084BF02183F8231000219F
:1029100091610720106183F823107047FEE700BF24
:1029200000000020D34D621000ED00E0034B186062
:10293000024B1B68002BFBD1704700BF2002002018
:10294000034B1B681BB1024A1368013B13607047BD
:102950002002002070B584B0FFF7C8FFFFF770FFBA
:10296000FEF794FCFEF77CFC194800F0FFFDFFF732
:102970006DFE2BE0174B33F81420174B1A80174BC2
:1029800033F81400164B1880FFF7E0FD154B029347
:10299000012601961825009550234FF4F07232213C
:1029A0001E20FFF71DFF104B0293019600956E232A
:1029B0004FF4F07250211E20FFF712FF4FF44870C1
:1029C000FFF7B4FF3444A4B2042CD3D90024FBE7AE
:1029D0003C710008140000201E02002008000020A6
:1029E000040000204471000804020020002103E0DC
:1029F0000B4B5B58435004310A480B4B42189A4228
:102A0000F6D30A4A02E0002313600432084B9A42CC
:102A1000F9D3FEF751F900F0FBFEFFF79BFF70477B
:102A20000875000800000020E8010020E8010020EF
:102A300074030020FEE72DE9F04F89B0DDE9159819
:102A4000002B1D461446BCBF03F10043144628F07A
:102A5000200A149AB6BF1D4600232D23BAF1460F53
:102A6000DDE9126B137005D0BAF1450F00D10136C4
:102A7000022300E0032307AA049206AACDE90292EA
:102A8000CDE9003622462B4600F072FFB8F1670F01
:102A9000074619D11BF0010F0ED007EB06080022E4
:102AA000002320462946FDF7FFFF08B1CDF81C8022
:102AB0003022079B434521D3079B179ADB1B3846DF
:102AC000136009B0BDE8F08FB8F1470FE2D0BAF15A
:102AD000460F00EB0608E2D10378302B0AD1002222
:102AE000002320462946FDF7DFFF18B9C6F101068D
:102AF000C9F80060D9F800309844D0E7591C079114
:102B00001A70D6E7F7B50029BABF49422D232B2307
:102B100009290270437029DD0DF107031D460A27BC
:102B20001A46B1FBF7F607FB1614303402F8014CD5
:102B30000C46632C03F1FF333146F1DC3031941E37
:102B400003F8011C411C2346AB420AD30DF10903D3
:102B50009B1AAC4288BF002302330344181A03B007
:102B6000F0BD13F8016B01F8016FEDE73023303150
:102B70008370C170031DF1E72DE9F04F91B00C4651
:102B8000DDF8688016461F46054600F0F7FD03682D
:102B900008931846FDF75CFB00230E93D8F800302D
:102BA0000990073323F0070303F1080294F818A0F3
:102BB000D4F800B0C8F80020D3E9008929F0004318
:102BC0000B93CDF82880C4E91289DDE90A019C4BFA
:102BD0004FF0FF32FDF79AFF70BBDDE90A01984B19
:102BE0004FF0FF32FDF774FF30BB00220023404658
:102BF0004946FDF763FF10B12D2384F84330914A15
:102C0000914BBAF1470F94BF904698460323236136
:102C10002BF0040323604FF00009009733460FAAFE
:102C20002146284600F0DEF9013040F099804FF04F
:102C3000FF3011B0BDE8F08F42464B464046494652
:102C4000FDF764FF40B14B46002BBCBF2D2384F839
:102C500043307E4A7E4BD4E763685A1C29D1062351
:102C600063604BF480630022236006920EAACDE9D4
:102C700004A20DAA03920DF13302CDE9013263687B
:102C8000009342464B462846FFF7D5FEBAF1670F40
:102C90000D99804615D1CB1C3BDB6368994238DC2B
:102CA0000E9B994255DB23682161D80745D54B1C03
:102CB00042E00AF0DF02472AD3D1002BD1D1012311
:102CC000CEE7BAF1470F07D1C81C25DB63688B42FA
:102CD00022DB4FF0670AE3E7BAF1650F1FD801392D
:102CE000524604F150000D91FFF70CFF0E9A131895
:102CF000012A8146236102DC2268D20701D5013313
:102D000023619DF83330002B87D02D2384F8433086
:102D100083E74FF0650AE2E74FF0450ADFE7BAF1D3
:102D2000660FBDD1002963680BDD216113B92268EC
:102D3000D00702D501330B442361A1654FF0000990
:102D4000DFE713B92268D20701D50233F4E7012384
:102D5000F2E70029D4BFC1F1020201221344EBE7DC
:102D600023685A0507D42369424631462846B847A6
:102D700001302BD15BE7BAF1650F40F2DC80D4E97A
:102D8000120100220023FDF78FFE002833D0314AC4
:102D9000012331462846B84701303FF448AFDDE90A
:102DA0000D38434502DB2368D8070FD5DDE908233A
:102DB00031462846B84701303FF439AF4FF000099B
:102DC00008F1FF3804F11A0AC84509DC23689B079B
:102DD00000F10281E0680F9B9842B8BF184628E7CF
:102DE0000123524631462846B84701303FF41FAF11
:102DF00009F10109E8E70D9B002B38DC154A012396
:102E000031462846B84701303FF411AFDDE90D39AE
:102E100059EA030302D12368D907D7D5DDE908238E
:102E200031462846B84701303FF401AF4FF0000A61
:102E300004F11A0B0D9B5B4253450DDC4B4693E7A7
:102E4000FFFFEF7F567100085A7100085E7100089D
:102E5000627100086671000801235A46314628460F
:102E6000B84701303FF4E3AE0AF1010AE2E7A36D8F
:102E7000DDF838A05345A8BF5346002B994636DCF1
:102E80004FF0000B29EAE97904F11A02A36D0A93C5
:102E9000A3EB09035B4531DC0D9B9A453ADC2368C3
:102EA000DA0737D40D9BAAEB03090A9BAAEB0303AD
:102EB0009945A8BF9946B9F1000F33DC4FF00008DF
:102EC00029EAE97904F11A0B0D9BAAEB0303A3EBA2
:102ED000090343457FF77AAF01235A463146284616
:102EE000B84701303FF4A3AE08F10108ECE74246D1
:102EF00031462846B8470130C2D198E60123314611
:102F000028460A92B84701303FF491AE0A9A0BF175
:102F1000010BBBE7DDE9082331462846B8470130FD
:102F2000C0D184E60A9A4B46424431462846B84707
:102F30000130C3D17BE6DDF838A0BAF1010F01DC26
:102F4000DB0736D50123424631462846B8470130D3
:102F50003FF46DAEDDE9082331462846B84701301D
:102F60003FF465AED4E91201002200230AF1FF3AD2
:102F7000FDF79AFDC0B9534608F1010231462846D3
:102F8000B84701300CD152E601235A463146284653
:102F9000B84701303FF44BAE08F10108D045F3DBF0
:102FA0004B4604F15002E0E64FF0000804F11A0B22
:102FB000F4E701234246E1E701234A463146284629
:102FC000B84701303FF433AE08F10108E3680F99C8
:102FD0005B1A4345F0DCFDE64FF0000804F11909E7
:102FE000F4E700BF2DE9F047164698468A680B695A
:102FF000DDF820909342B8BF1346336091F8432028
:1030000007460C460AB1013333602368990642BF74
:10301000336802333360256815F0060506D104F1E4
:10302000190AE36832689B1AAB4226DC94F84330F5
:103030002268003B18BF012392062BD404F14302FF
:1030400041463846C84701301ED02368226903F044
:103050000603042B02BFE5683368ED1AA3680CBFB2
:1030600025EAE57500259342C4BF9B1AED1800269A
:103070001A34B5421AD1002008E0012352464146D5
:103080003846C847013003D14FF0FF30BDE8F08724
:103090000135C6E7E1185A1C302081F8430022446C
:1030A00094F8451082F843100233C7E70123224603
:1030B00041463846C8470130E6D00136D9E700001E
:1030C0002DE9FF470F7E0C9E782F914680460C46D7
:1030D0009A4601F1430207D8622F0AD8002F00F068
:1030E000DD80582F00F0C38004F1420684F842705E
:1030F0003AE0A7F16303152BF6D801A151F823F0AC
:10310000593100086D310008E9300008E930000845
:10311000E9300008E93000086D310008E9300008A6
:10312000E9300008E9300008E9300008833200087F
:10313000FB3100083B320008E9300008E9300008A4
:10314000A5320008E9300008FB310008E93000082A
:10315000E93000084332000833681A1D1B683260EA
:1031600004F1420684F842300123A8E03168236864
:10317000081D30601E0601D50D6803E05D06FBD515
:10318000B1F900506168002D78DA2D20002984F80B
:103190004300A1602DDA5E486D420A231646B5FB56
:1031A000F3F103FB1157C75D06F8017D2F46BB42C3
:1031B0000D46F4D9082B0BD12368DF0708D5236906
:1031C00061689942DEBF302306F8013C06F1FF3604
:1031D000921B2261CDF800A04B4603AA214640462F
:1031E000FFF700FF01306FD14FF0FF3004B0BDE8B2
:1031F000F08723F004032360CDE7216833680806D5
:1032000053F8045B02D4490648BFADB26F2F404863
:10321000336014BF0A230823002184F84310666832
:10322000A660002EBADB216821F004012160002D88
:10323000B4D1002EB2D11646BCE7236843F0200378
:1032400023603448782784F84570236831681F0666
:1032500051F8045B02D45F0648BFADB23160D907B4
:1032600044BF43F0200323601DB11023D4E7284856
:10327000E9E7236823F020032360F6E724480A23C4
:10328000CDE7336825686169181D30602E061B681C
:1032900001D5196002E06806FBD51980002323617F
:1032A000164697E733681A1D32601E68626800216F
:1032B0003046FCF77DFF08B1801B606063682361C6
:1032C000002384F8433085E7236932464946404667
:1032D000D047013088D023689B0714D4E068039B53
:1032E0009842B8BF184681E7012332464946404616
:1032F000D04701303FF478AF0135E36803995B1A9A
:10330000AB42F1DCEAE7002504F11906F5E700BF5E
:103310006871000879710008002310B50446C0E9FF
:103320000033C0E90433836081814366C2818361D5
:10333000194608225C3000F019FA0D4B63620D4B00
:10334000A3620D4BE3620D4B23630D4B24629C4241
:1033500006D003F16802944202D0D0339C4205D1DA
:1033600004F15800BDE8104000F076BA10BD00BF6F
:10337000BD350008DF350008173600083B36000869
:1033800024020020024A0349034800F069B800BF44
:1033900020000020F55400083000002041680C4B4C
:1033A000994210B5044601D002F0A4F8A168094B77
:1033B000994202D0204602F09DF8E168064B9942FE
:1033C00004D02046BDE8104002F094B810BD00BF04
:1033D000240200208C020020F402002010B50B4BC8
:1033E0000B4C0C4A1A60204600220421FFF794FF80
:1033F00004F1680001220921FFF78EFF04F1D000DB
:103400000222BDE810401221FFF786BF5C030020B6
:103410002402002085330008014800F01EBA00BFD6
:1034200065030020014800F019BA00BF65030020C1
:1034300010B50446FFF7F0FF236A1BB1BDE810404A
:10344000FFF7F0BF044B2362044B1B68002BF5D140
:10345000FFF7C4FFF2E700BF9D3300085C030020C4
:103460002DE9F8430746884614460026D4E901951D
:10347000B9F1010905D52468002CF7D13046BDE823
:10348000F883AB89012B07D9B5F90E30013303D08E
:1034900029463846C04706436835E9E70FB407B503
:1034A000064904AB086853F8042B8168019301F0C6
:1034B00089FE03B05DF804EB04B070472C000020D7
:1034C000036A70B5846805460E460BB9FFF7B0FF76
:1034D000636EDB0705D4A389980502D4A06D00F0C4
:1034E000BCF9A389190702D52369002B35D12146E0
:1034F000284600F0E5F880B34FF0FF35636EDA0739
:1035000005D4A3899B0502D4A06D00F0A7F9284635
:1035100070BD002B15DB23685A1C22601970A3684C
:1035200016F8011F013BA3600029F2D1002B16DA27
:1035300022460A21284600F084F80130DCD00A2512
:10354000DCE7A2699A4201DC0A29E4D12246284636
:1035500000F077F80130E2D1CEE7013EDFE72368E3
:103560005A1C22600A221A70E9E70000024B014649
:103570001868FFF7A5BF00BF2C0000200EB400B5EF
:103580009CB01DAB029006906FF000410948079176
:103590000491094953F8042B05910068019302A98D
:1035A00001F0ECFC029B00221A701CB05DF804EBE9
:1035B00003B070472C0000200802FFFF10B50C4636
:1035C000B1F90E1000F000F90028ABBF636DA389BC
:1035D0001B1823F48053ACBF6365A38110BD2DE994
:1035E000F0411F468B89DB0505460C46164605D57E
:1035F000B1F90E100223002200F0D4F8A389B4F927
:103600000E1023F48053A38132463B462846BDE882
:10361000F04100F0EBB810B50C46B1F90E1000F017
:10362000C1F8431CA38915BF606523F4805343F49C
:103630008053A38118BFA38110BDB1F90E1000F013
:10364000A1B8F8B50E461446054618B1036A0BB981
:10365000FFF7EEFEA369A360A3891A0701D52369CA
:1036600043B92146284600F02BF818B14FF0FF3738
:103670003846F8BD23682269981A6369F6B2834216
:10368000374605DC2146284601F034FF0028EDD1FD
:10369000A368013BA36023685A1C22601E70626904
:1036A000431C9A4204D0A389DB07E1D50A2EDFD15F
:1036B0002146284601F01EFF0028D9D0D6E7000099
:1036C00038B5294B054618680C4618B1036A0BB982
:1036D000FFF7AEFEB4F90C30190722D4DA0607D48E
:1036E00009222A6043F04003A3814FF0FF3033E00A
:1036F000580712D5616B41B104F14403994202D0DD
:10370000284600F063FF00236363A38923F02403AA
:10371000A3810023636023692360A38943F0080326
:10372000A38123694BB9A38903F42073B3F5007F08
:1037300003D02146284601F02BFFB4F90C3013F0DA
:1037400001020AD00022A26062695242A26122698B
:1037500042B913F08000C5D138BD990758BF6269DE
:10376000A260F4E70020F7E72C00002002440346A3
:10377000934200D1704703F8011BF9E700487047F6
:103780006C01002038B5064D0023044608462B6026
:1037900002F07AF8431C02D12B6803B1236038BDD4
:1037A0006003002038B5074D044608461146002244
:1037B0002A601A4602F090F8431C02D12B6803B12C
:1037C000236038BD6003002038B5074D0446084625
:1037D000114600222A601A4602F086F8431C02D1E4
:1037E0002B6803B1236038BD6003002038B5074D56
:1037F00004460846114600222A601A4602F08AF85A
:10380000431C02D12B6803B1236038BD6003002044
:1038100070B50D4D0D4C641BA4100026A64209D1B5
:103820000B4D0C4C02F080F8641BA4100026A6423D
:1038300005D170BD55F8043B98470136EEE755F8C1
:10384000043B98470136F2E7007500080075000850
:1038500000750008047500087047704770472DE92F
:10386000F74F03690C69A34207467EDB013C01F177
:103870001408A30000F11405009305EB84030193E1
:1038800058F8243055F8242001339A4208EB840973
:10389000B2FBF3F62ED34FF0000AC446AE46D34631
:1038A0005CF8043B98B206FB00A0020C1B0C06FB64
:1038B0000323DEF8002080B292B2121A5A44DEF8D6
:1038C00000004FEA134A9BB2C3EB224303EB1043C1
:1038D00092B242EA0342E1454EF8042B4FEA234BF1
:1038E000DED2009BEB582BB9019B043B9D421A464C
:1038F0002FD33C61384601F0DFF9002825DB29464B
:10390000002058F8042BD1F800C01FFA82FE1FFADD
:103910008CF3A3EB0E030344120CC2EB234202EB25
:103920001C429BB243EA0243C14541F8043B4FEAC3
:103930002240E6D255F8242005EB840322B9043B4B
:103940009D421A460BD33C610136304603B0BDE8B8
:10395000F08F1268043B002ACBD1013CC6E7126805
:10396000043B002AEFD1013CEAE70020EEE700002B
:103970002DE9F04FC76997B014461D46CDE90445BF
:10398000239E83467FB9102000F06AFE0246CBF8E2
:103990001C0020B9A24BEF21A24801F08FFEC0E924
:1039A00001770760C760DBF81C30196859B15A68A5
:1039B0004A60012393408B60584600F03FFFDBF8DC
:1039C0001C3000221A602B1EB9BF23F00043059360
:1039D00000233360059F944BBCBF01223260BB4380
:1039E00019D1229A42F20F731360C7F313032343D2
:1039F00000F0E285249B53B98C4B21E08C4B08935B
:103A00000833249A1360089817B0BDE8F08F874BED
:103A100008930333F5E7DDE90423CDE90C23DDE961
:103A20000C0100220023FDF73FF8804650B1229A96
:103A300001231360249B13B1249A7E4B13607E4BA9
:103A40000893E0E714AB019315AB00935846DDE90A
:103A50000C2301F0DFF9C7F30A560390002E7AD049
:103A60000D9BCDF84C80C3F31303DDE90C0143F04B
:103A70007F5343F44013A6F2FF36194600226F4BE2
:103A8000FCF7F2FB60A3D3E90023FCF7A5FD60A3DC
:103A9000D3E90023FCF7EAFB044630460D46FCF769
:103AA00031FD5DA3D3E90023FCF796FD02460B46EA
:103AB00020462946FCF7DAFB04460D46FDF73CF8A4
:103AC00000220746002320462946FCF7F7FF40B1B5
:103AD0003846FCF717FD22462B46FCF7E5FF00B9F8
:103AE000013F162F54D8564B03EBC703D3E90023ED
:103AF000DDE90C01FCF7E2FF00284BD0013F002379
:103B00001293149B9B1B5A1E45BFC3F101030693DE
:103B1000002300230A9254BF06930A93002F3BDB35
:103B20000A9B0F973B440A9300230B93209B092B7E
:103B300000F28A80052BC4BF043B2093209BA3F195
:103B40000203CCBF00240124032B00F28880DFE8AD
:103B500003F02B383657DDE914631E4406F2324376
:103B6000202BC1BFC3F140039F4006F2124324FA49
:103B700003F3D6BFC3F1200347EA030004FA03F0BE
:103B8000FCF7B0FC0122A1F1F873013E139274E737
:103B90000123B5E71290B4E7069BDB1B06937B423B
:103BA0000B9300230F93C1E700230E93219B002B5F
:103BB00058DC0123099399461A4621920CE001230F
:103BC000F3E700230E93219BFB1803F101090993EE
:103BD0004B46012BB8BF0123DBF81C000021042257
:103BE00002F114059D4241D94160584600F0E6FDBE
:103BF000089000283DD1134B024640F2AF11CBE6AE
:103C00000123DFE7AFF3008061436F63A787D23FF3
:103C1000B3C8608B288AC63FFB799F501344D33FBB
:103C200097710008AE7100080000F07F93710008E2
:103C30008A71000867710008667100080000F83F8B
:103C4000E0720008237200080124002320930E94E0
:103C50004FF0FF330993994600221223ADE7012369
:103C60000E93F5E7219B09939946B5E70131520080
:103C7000B6E7DBF81C30089A1A60B9F10E0F6FD85E
:103C8000002C6DD0002F36DDA14B07F00F0203EBA7
:103C9000C203D3E90034F805CDE910344FEA271404
:103CA00017D59C4BDDE90C01D3E90823FCF7BEFDD9
:103CB000CDE9040104F00F044FF00308954D5CB901
:103CC000DDE91023DDE90401FCF7B0FDCDE90401D5
:103CD0002BE04FF00208F1E7E10709D5DDE910011B
:103CE000D5E90023FCF778FCCDE9100108F10108C3
:103CF00064100835E3E700F007817C42844B854D72
:103D000004F00F0203EBC203D3E90023DDE90C0149
:103D1000FCF762FCCDE90401241100234FF00208F6
:103D2000002C40F0E580002BD0D1129BDDE904454A
:103D3000002B00F04C81784B002220462946FCF7EE
:103D4000BDFE002800F04381B9F1000F00F03F8173
:103D5000099B002B00F3E480DDE90C34CDE9043449
:103D6000159B002B02DB0E2F40F342820E9A002A95
:103D700040F067820B9CDDF818800025B8F1000F39
:103D80000DD00A9B002B0ADD4345069AA8BF434687
:103D9000D21A06920A9AA8EB0308D31A0A930B9B2D
:103DA0000BB30E9B002B00F0A682002C00F0A1822A
:103DB00029462246584600F0B9FE039A01460546B8
:103DC000584600F009FE03990646584600F036FDB5
:103DD0000B9B1B1B0B9300F091820B9A31465846AC
:103DE00000F0A4FE03900121584600F0DFFD0F9B78
:103DF0000446002B00F084821A460146584600F023
:103E000095FE209B012B044603DC049B002B00F055
:103E10007C820026236904EB8303186900F076FD99
:103E20000F96C0F120000A9B184410F01F0000F00C
:103E30009182C0F12003042B40F38182069BC0F1E4
:103E40001C00034406930A9B034480440A93069B88
:103E5000002B05DD03991A46584600F0C1FE039079
:103E60000A9B002B05DD21461A46584600F0B8FE95
:103E70000446129B002B00F076820398214600F046
:103E80001BFF002880F26F82002303990A22584604
:103E900000F0F6FC0E9B03907E1E002B00F05C826F
:103EA000002329460A22584600F0EAFC099B002B11
:103EB000054603DC209B022B00F35E82B8F1000F65
:103EC00005DD29464246584600F08AFE05460F9B0E
:103ED000002B00F0D0826968584600F06FFC07465E
:103EE000002840F07F820D4B024640F2EF2153E55F
:103EF000E20706D5D5E90023FCF76EFB08F10108BF
:103F00000123641008350BE74FF002080DE700BFEE
:103F1000E0720008B87200080000F03F2372000849
:103F20002046AD4B00222946FCF756FBCDE90401A3
:103F3000099C7E1E08F101084046FCF7E3FADDE922
:103F40000423FCF749FBA54B0022FCF78FF9A1F1F4
:103F50005073CDE910011193002C3BD1DDE9040130
:103F60009F4B0022FCF780F902460B46CDE9042363
:103F7000DDE91023FCF7C0FD002840F05781DDE9A2
:103F8000102101F10043DDE90401FCF797FD002851
:103F90003FF4E2AE00242546219BDDF820A0DE435D
:103FA0004FF000082146584600F048FC002D00F074
:103FB000A980B8F1000F05D0A84503D04146584666
:103FC00000F03CFC2946584600F038FC9AE03E469A
:103FD0004C46B1E7834B03EBC40353E90201089B52
:103FE0001C440E9B002B4AD002460B4600207E4903
:103FF000FCF71CFCDDE91023FCF736F9CDE91001D4
:10400000DDF820A0DDE90401FCF796FD0546FCF78C
:1040100079FA02460B46DDE90401FCF725F9303553
:10402000CDE9040102460B460AF8015BDDE9100107
:10403000FCF762FD002865D1DDE904236B4900200F
:10404000FCF712F902460B46DDE91001FCF754FDBE
:10405000002840F00D81A24500F0EA80DDE9100162
:104060005D4B0022FCF7B8FA5B4BCDE91001002252
:10407000DDE90401FCF7B0FACDE90401C2E7DDE9AE
:104080001023FCF7A9FACDE91001DDF820A0A04625
:10409000DDE90401FCF750FD0546FCF733FA024662
:1040A0000B46DDE90401FCF7DFF830350AF8015B67
:1040B00002460B46A245CDE904234FF0000223D16E
:1040C000494BDDE91001FCF7D1F802460B46DDE96A
:1040D0000401FCF711FD002840F0CA80DDE910233F
:1040E00041490020FCF7C0F802460B46DDE9040117
:1040F000FCF7E4FC70B1C24608F1FF381AF8013C45
:10410000302BF8D0374655E0334BFCF765FACDE954
:104110000401BDE7DDE90C34CDE90434159B002B27
:10412000FFF628AE0E2F3FF725AE2E4B03EBC7034D
:10413000D3E90034CDE90634219B002B02DAB9F132
:10414000000F64D0DDE90445DDF820A0DDE9062399
:1041500020462946FCF76AFBFCF7EEFC0646FCF716
:10416000D1F9DDE90623FCF737FA02460B46204673
:10417000294606F13004FCF777F80AF8014B089C51
:10418000AAEB0404A14502460B4640F08280FCF7EE
:104190006DF8DDE9062304460D46FCF7ADFC00286A
:1041A00065D1DDE9062320462946FCF77DFC08B1F0
:1041B000F3075CD40399584600F040FB00238AF8CB
:1041C0000030229B01371F60249B002B3FF41BAC67
:1041D000C3F800A017E400BF0000244000001C400A
:1041E00000001440E07200080000E03F0000F03FD3
:1041F000A24B03EBC703D3E90034CDE90634219B7E
:10420000002B9FDAB9F1000F9CDC7FF4C3AE9C4B0E
:104210000022DDE90601FCF7DFF9DDE90423FCF704
:1042200061FC044600287FF4B5AE3E462546B4E066
:10423000DDE90C34CDE90434159B002B01DB0E2F96
:10424000D6DD209A012A36DC139A82B303F2334377
:104250000B9CDDF81880069A1A4406920A9A0121EE
:104260001A4458460A9200F0A1FB054686E53E46F0
:1042700053469A4613F8012D392A06D1089A9A42D4
:10428000F7D10899302201360A701A7801321A7073
:1042900038E77C4B0022FCF79FF9002200230446FC
:1042A0000D46FCF701FC00283FF450AF82E7149B59
:1042B000C3F13603CCE70B9B09F1FF34A34208DBC3
:1042C000B9F1000FA3EB04040EDBDDF818804B46B8
:1042D000C1E70B9B0F9A0B94E31A1A44DDF8188080
:1042E0000F924B460024B6E7069BA3EB0908002378
:1042F000B1E7039E71E50B9A039970E5039672E5A9
:10430000209B012B17DC049BABB9059BC3F3130364
:104310009BB9059B23F00046360D360536B1069B4A
:10432000013306930A9B01330A9301260F9B002B4E
:104330007FF470AD0F96012075E50026F6E73FF497
:1043400086AD069A1C331A4406920A9A1A44984477
:104350000A927CE50346F4E7099B002B2BDC209BAB
:10436000022B09DC27E0B9F1000F1DDC209B022B9A
:104370001ADDCDF824903E46099B002B7FF40CAE4D
:1043800021460522584600F07BFA01460446039870
:1043900000F092FC00287FF7FFADDDF820A031236C
:1043A0000AF8013B0136FBE50E9BCDF824903E4612
:1043B000002B7FF483AD089F03982146FFF74FFA47
:1043C00000F1300907F8019B089B099AFB1A9A42F1
:1043D00040F3CB80039900230A22584600F050FA9C
:1043E0000390E9E72A690232920005F10C010C30D2
:1043F00001F056F901223946584600F0F1FB089BBE
:1044000003F1010ADDE9082313440A93049B03F036
:104410000103A8460B9305460AF1FF332146039892
:104420000693FFF71CFA4146099000F13009039802
:1044300000F042FC2A4621460746584600F058FC48
:10444000C268014602B3584600F0F8F9002F3ADA84
:1044500003990122584600F0C3FB2146039000F067
:104460002BFC002803DC29D119F0010F26D0B9F16B
:10447000390F1DD132E02846C1E700BFE0720008C5
:1044800000001440000024400E90039800F014FC3B
:104490000E990C90584600F0D1F90C9A5ABB209B0B
:1044A00053B90B9B43B9B9F1390F17D0002F05DD74
:1044B000099B03F1310901E0002F2ADADDF818A089
:1044C0000AF8019B6EE5209B3B4304D1049B03F05B
:1044D0000103002BBCD0B9F1390F36D1069F392327
:1044E00007F8013BBA46013F1AF8013C392B5BD073
:1044F00001333B7056E5002F06DB209B3B4306D182
:10450000049B03F0010313B9002AA1DCD6E7002ABB
:10451000E1DC0A9B0AF8019C534557462FD00399CA
:1045200000230A22584600F0ABF9A84503904FF04B
:1045300000034FF00A02414658460BD100F0A0F9A3
:10454000804605460AF1010A66E7DDF818A009F180
:104550000109B5E700F094F92946804600230A22B4
:10456000584600F08DF90546ECE7099B002BC8BFC3
:104570001F46089BD8BF01271F444FF0000803992E
:104580000122584600F02CFB2146039000F094FBDA
:104590000028A7DC02D119F0010FA3D1BA4617F801
:1045A000013D302BFAD0FDE4089BBB429AD1089A1A
:1045B000312301361370F5E4249B002B7FF41EAAEF
:1045C000014BFFF73DBA00BF8A71000838B50546B8
:1045D000002941D051F8043C0C1F002BB8BFE4184F
:1045E00000F0E0F81D4A136833B963601460284690
:1045F000BDE8384000F0DCB8A34208D92068211893
:104600008B4201BF19685B6809182160EDE71A4603
:104610005B680BB1A342FAD911685018A0420BD1C4
:1046200020680144501883421160E0D118685B682B
:10463000536008441060DAE702D90C232B60D6E7F8
:10464000206821188B4204BF19685B68636004BF4F
:10465000091821605460CAE738BD00BF6C03002010
:10466000024B0146186800F025B800BF2C0000205E
:1046700070B50F4E0C463168054611B901F000F8CF
:1046800030602146284600F0FBFF431C03D14FF069
:10469000FF34204670BDC41C24F00304A042F8D0AF
:1046A000211A284600F0ECFF0130F2D1EFE700BFFD
:1046B000680300202DE9F041CD1C25F003050835E5
:1046C0000C2D38BF0C25002D064601DBA94204D96C
:1046D0000C2333600020BDE8F081314F00F062F818
:1046E0003B681C4644BB29463046FFF7C1FF431CCC
:1046F000044650D13C682146002941D1002C44D0C9
:104700002368304604EB030800F0BAFF80453CD133
:1047100021686D1A29463046FFF7AAFF013034D0D0
:1047200023682B4423603B68002B36D05A68A24292
:1047300029D100225A600EE02268521B1DD40B2A98
:1047400016D96119A342256018BF5960636808BF74
:10475000396062514B60304600F02AF804F10B00DA
:10476000231D20F00700C21AB5D01B1AA350B2E7D0
:10477000A3426268DED13A60EDE723466468B1E7A0
:104780000C464968B8E71346CEE70C233360304641
:1047900000F00EF89EE70560DDE75B60FFDE00BF1E
:1047A0006C0300200148FFF758B800BF64030020E5
:1047B0000148FFF753B800BF6403002070B5C66915
:1047C00004460D4676B91020FFF74AFF0246E06125
:1047D00020B9184B18486B2100F070FFC0E9016642
:1047E0000660C660E669F36883B1E369DB6853F885
:1047F0002500B8B9012101FA05F6721D9200204684
:1048000000F07AFF60B1C0E901560EE021220421D8
:10481000204600F071FFE369F060DB68002BE4D113
:10482000002070BD026843F825200023C0E903334F
:10483000F7E700BF977100083472000870B5C669C9
:1048400005460C4676B91020FFF70AFF0246E861DC
:1048500020B9094B09488F2100F030FFC0E90166FB
:104860000660C6603CB1EB696268DB6853F82210F1
:10487000216043F8224070BD97710008347200082F
:104880002DE9F0410D6907460C461E4601F1140C56
:104890000020DCF8003099B202FB01611E0C0B0C09
:1048A00002FB063389B2013001EB034185424CF82B
:1048B000041B4FEA1346ECDC0EB3A368AB4219DCD1
:1048C000616838460131FFF779FF804628B9024612
:1048D0000C4B0D48BA2100F0F1FE2269023204F1BE
:1048E0000C0192000C3000F0DBFE21463846FFF749
:1048F000A5FF444604EB850301355E612561204632
:10490000BDE8F0812372000834720008B0F5803FE2
:10491000034636BF030400201020B3F1807F3CBF64
:104920001B020830B3F1805F3CBF1B010430B3F1C0
:10493000804F03D3002B0ADB013070479B0001D569
:10494000023070475B0001D503307047202070476C
:104950000368024613F007000BD0D90721D498074B
:1049600049BF5B089B08012013605CBF13600220F5
:10497000704799B209B91B0C1020D9B209B9083097
:104980001B0A190704BF1B090430990704BF9B08C1
:104990000230D90703D45B0800F1010003D0136093
:1049A00070470020704720207047000010B50C466B
:1049B0000121FFF703FF024628B9054B054840F2E5
:1049C000451100F07BFE01234461036110BD00BF6F
:1049D00023720008347200082DE9F04F14460A696A
:1049E00023699A42A8BF23460F46A4BF0C461F4620
:1049F000D4F810A0D7F81090A36861680AEB0906F4
:104A0000B34285B0B8BF0131FFF7D8FE30B90246D6
:104A1000444B45484FF4B17100F050FE00F11405CD
:104A200005EB86082B460022434521D307F11401EC
:104A300004F1140202EB8A0201EB89030293131BB7
:104A4000153B23F00303043304F11507BA4238BFC2
:104A500004230193029B03918B420CD8002E03DDAB
:104A600058F8043D002B5AD0066105B0BDE8F08F20
:104A700043F8042BD8E7B1F800A0BAF1000F23D017
:104A800004F1140EA9464FF0000C5EF8047BD9F82F
:104A900000301FFA87FB9BB20AFB0B336344D9F843
:104AA00000C03F0C4FEA1C4C0AFB07C707EB13473B
:104AB0009BB243EA0743724549F8043B4FEA174C5F
:104AC000E3D8019B45F803C0039BB3F8029004317F
:104AD000B9F1000F21D02B6804F1140CAE464FF051
:104AE000000ABCF800B0BEF8027009FB0B7757440F
:104AF0009BB243EA07434EF8043B5CF8043B4FEAA1
:104B0000134ABEF8003009FB0A3303EB1743624532
:104B10004FEA134AE5D8019FEB5104359AE7013E6D
:104B20009CE700BF23720008347200082DE9F843A7
:104B3000154612F0030207460E4607D0254C013AEF
:104B4000002354F82220FFF79BFE0646AD103DD00F
:104B5000FC697CB91020FFF783FD0246F86128B993
:104B60001D4B1E4840F2B31100F0A8FDC0E90144FE
:104B70000460C460D7F81C80D8F808404CB940F2F3
:104B800071213846FFF712FF0023C8F808000446D9
:104B900003604FF00009EB070AD53146224638463C
:104BA000FFF71AFF314680463846FFF747FE464674
:104BB0006D100BD0206838B9224621463846FFF7E1
:104BC0000BFF2060C0F800900446E4E73046BDE8E3
:104BD000F88300BFAC7200089771000834720008B7
:104BE0002DE9F0470C464968236903EB6218A36876
:104BF000074691464FEA621A08F10106B3420BDB01
:104C00003846FFF7DBFD054648B90246284B2948E0
:104C10004FF4EF7100F052FD01315B00EEE700232D
:104C200000F1140100F110021846534533DB2069EE
:104C30002AEAEA7A04F1140319F01F0901EB8A0148
:104C400003EB800C2BD0C9F1200E8A460022186895
:104C500000FA09F010434AF8040B53F8042B9C4562
:104C600022FA0EF2F3D8ACEB0403153B23F0030356
:104C7000043304F11500844538BF0423CA500AB137
:104C800008F10206013E38462E612146FFF7D6FDA7
:104C90002846BDE8F08742F8040F0133C5E7043920
:104CA00053F8042B41F8042F9C45F9D8EAE700BFDC
:104CB00023720008347200080A6903460069801AEA
:104CC00030B50ED11433143103EB820401EB8201B1
:104CD00054F8045D51F8042D954203D005D24FF0ED
:104CE000FF3030BDA342F3D3FBE70120F9E700001A
:104CF0002DE9F74F89460646114648461446FFF708
:104D0000DBFF051E12D129463046FFF757FD02464C
:104D100028B93E4B40F237213D4800F0CFFC01233B
:104D2000C0E90435104603B0BDE8F08FBCBF4B4668
:104D3000A1463046D9F80410BABF1C46012500250B
:104D4000FFF73CFD024618B9304B40F24521E3E73E
:104D5000D9F810702669C56009F1100309F114052E
:104D600004F1140E00F1140B05EB87080EEB860618
:104D70000193D9464FF0000C019B5EF8040B53F8E9
:104D800004AF019381B21FFA8AF35B1A000C6344EB
:104D9000C0EB1A4000EB23409BB243EA0043764548
:104DA00049F8043B4FEA204CE6D8331B153B23F06F
:104DB000030315340433A64238BF04231D445B4467
:104DC0001E462C4644450ED308F10301491B21F031
:104DD0000301033DA84538BF00210B4453F8041DCF
:104DE00091B117619EE754F8041BE646080C1CFAC3
:104DF00081FC714400EB2C4089B241EA004146F845
:104E0000041B4FEA204CDDE7013FE7E7237200086F
:104E1000347200082DE973430121089E904699469B
:104E2000FFF7CCFC044630B90246244B244840F23C
:104E30000F3100F043FCC9F30A55C9F313030DB158
:104E400043F480130193B8F1000324D06846009323
:104E5000FFF77EFDDDE90012D8B1C0F1200302FAB0
:104E600003F30B43C24063610192019BA361002BDA
:104E70000CBF012202222261ADB1A5F233450544E7
:104E80003560C0F13500099B1860204602B0BDE8CE
:104E900070836161E9E701A8FFF75AFD019B636137
:104EA00020300122E7E704EB8203A0F232403060B9
:104EB0001869FFF72BFDC0EB4210E4E723720008EE
:104EC000347200082DE9F0478E681F46BE420B6819
:104ED00082460C4690462DD8B1F90C2012F4906F02
:104EE00026D06569096905EB4505A3EB010905EBCA
:104EF000D5757B1C4B446D109D4238BF1D46530534
:104F000027D52946FFF7D6FB064660B321694A46F6
:104F100000F0C6FBA38923F4906343F08003A381D0
:104F2000266165614E44A5EB09052660A5603E46F5
:104F3000BE4200D93E4620683246414600F064FB3E
:104F4000A3689B1BA3602368334423600020BDE853
:104F5000F0872A4600F0F6FB06460028E0D12169DA
:104F60005046FFF733FB0C23CAF80030A38943F007
:104F70004003A3814FF0FF30E9E700002DE9F04F37
:104F800098468B891B069DB007460D46144610D5E2
:104F90000B6973B94021FFF78DFB2860286130B998
:104FA0000C233B604FF0FF301DB0BDE8F08F402375
:104FB0006B610023099320238DF82930CDF80C80F4
:104FC0003023DFF89C818DF82A304FF00109234609
:104FD0009A4613F8012B0AB1252AF9D1BAEB040B32
:104FE0000BD05B46224629463846FFF76BFF01305F
:104FF00000F0A780099A5A4409929AF80030002BD1
:1050000000F09F8000234FF0FF32CDE905230AF125
:10501000010A049307938DF853301A9354460522DE
:1050200014F8011B4E48FBF7C3F8049AD8B9D00610
:1050300044BF20238DF85330110744BF2B238DF834
:1050400053309AF800302A2B15D0079A5446002086
:105050004FF00A0C214611F8013B303B092B4BD98C
:10506000B0B1079214E0A0EB080309FA03F313436D
:105070000493A246D2E7039B191D1B680391002BE2
:10508000BBBF5B4242F0020207930793B8BF049292
:1050900023782E2B0AD163782A2B32D1039B1A1D39
:1050A0001B68039243EAE37302340593DFF8B4A06C
:1050B000217803225046FBF77BF838B1049BA0EB24
:1050C0000A004022824013430134049314F8011B68
:1050D00025488DF828100622FBF76AF8002836D0FC
:1050E000224B1BBB039B073323F0070308330393B7
:1050F000099B334409936AE70CFB02320C460120FA
:10510000A8E700230134059319464FF00A0C204606
:1051100010F8012B303A092A03D9002BC6D005918B
:10512000C4E70CFB012104460123F0E703AB009325
:105130002A460F4B04A93846FDF71EFD421C0646C1
:10514000D6D1AB895B063FF52DAF09982CE703ABB1
:1051500000932A46064B04A93846FDF7B1FFEDE758
:10516000A8730008AE730008B2730008792B00081A
:10517000C54E00089368013B002B10B4936007DA1A
:105180009469A34201DB0A2902D110BCFEF759BA87
:105190001368581C10601970084610BC7047F8B5A9
:1051A00006460F461446D518AC4201D1002007E050
:1051B00014F8011B3A463046FFF7DCFF431CF3D1DD
:1051C000F8BD00002DE9F04F0D469DB014469846FD
:1051D000064618B1036A0BB9FEF72AF96B6ED907B8
:1051E00005D4AB899A0502D4A86DFEF736FBAB89CE
:1051F0001B0701D52B699BB929463046FEF760FA9B
:1052000070B16B6EDC0704D54FF0FF301DB0BDE808
:10521000F08FAB899805F7D4A86DFEF71FFBF3E775
:105220000023099320238DF82930CDF80C803023FA
:10523000DFF8AC818DF82A304FF0010923469A46F9
:1052400013F8012B0AB1252AF9D1BAEB040B0BD0C4
:105250005B46224629463046FFF7A1FF013000F0A9
:10526000A780099A5A4409929AF80030002B00F05E
:105270009F8000234FF0FF32CDE905230AF1010A98
:10528000049307938DF853301A935446052214F86B
:10529000011B5348FAF78CFF049AD8B9D10644BFD2
:1052A00020238DF85330130744BF2B238DF8533040
:1052B0009AF800302A2B15D0079A544600204FF058
:1052C0000A0C214611F8013B303B092B4BD9B0B1F8
:1052D000079214E0A0EB080309FA03F313430493C5
:1052E000A246D2E7039B191D1B680391002BBBBF8D
:1052F0005B4242F0020207930793B8BF04922378FF
:105300002E2B0AD163782A2B32D1039B1A1D1B68DE
:10531000039243EAE37302340593DFF8C8A02178CF
:1053200003225046FAF744FF38B1049BA0EB0A0071
:105330004022824013430134049314F8011B2A488D
:105340008DF828100622FAF733FF00283FD0274BAC
:105350001BBB039B073323F0070308330393099B0D
:105360003B4409936AE70CFB02320C460120A8E794
:1053700000230134059319464FF00A0C204610F81B
:10538000012B303A092A03D9002BC6D00591C4E776
:105390000CFB012104460123F0E703AB00932A46EE
:1053A000134B04A93046FDF7E7FB0746781CD6D11E
:1053B0006B6ED90705D4AB899A0502D4A86DFEF7A8
:1053C0004DFAAB895B063FF51FAF09981EE703ABAB
:1053D00000932A46064B04A93046FDF771FEE4E728
:1053E000A8730008AE730008B2730008792B000898
:1053F0009F510008B1F90C20F8B5170705460C4677
:1054000056D44B68002B02DC0B6C002B3DDDE66AAA
:10541000002E3AD0002312F480522F68216A2B60AC
:1054200025D0626DA389580705D56368D21A636BCE
:105430000BB1236CD21A216AE66A00232846B047D2
:10544000411C24D00023636023692360A389DA040C
:1054500000D56065616B2F60B9B104F144039942D6
:1054600002D02846FFF7B2F8002363630DE0012362
:105470002846B047461C0246D4D12B68002BD1D019
:105480001D2B01D0162B2AD12F6000202EE02A6878
:10549000B4F90C3042B11D2A01D0162A21D10023C3
:1054A000636023692360D5E7626022692260CEE7EA
:1054B0000F69002FE9D093070E6808BF4B690F6092
:1054C00018BF0023F61B8B60002EDEDD216AD4F8A6
:1054D00028C033463A462846E047002807DCB4F99E
:1054E0000C3043F04003A3814FF0FF30F8BD074478
:1054F000361AE9E738B50B6905460C4613B900259D
:10550000284638BD18B1036A0BB9FDF791FFB4F90D
:105510000C30002BF3D0626ED00704D4990502D46E
:10552000A06DFEF79AF928462146FFF763FF636EE8
:10553000DA070546E4D4A3899B05E1D4A06DFEF704
:105540008DF9DDE770B50C46B1F90E10002996B063
:1055500015461E460DDAA38913F0800F4FF00001A7
:1055600014BF40234FF48063002031602B6016B0DD
:1055700070BD6A4600F062F80028ECDB019901F486
:105580007041A1F50053594259414FF48063EBE754
:105590008B89F7B59D0706460C4607D504F14703EE
:1055A000236023610123636103B0F0BD01AB6A4650
:1055B000FFF7C8FF009F054639463046FFF77AF8E7
:1055C00048B9B4F90C309A05EED423F0030343F044
:1055D0000203A381E2E7A389206043F08003A38153
:1055E000019BC4E904075BB1B4F90E10304600F02A
:1055F00037F828B1A38923F0030343F00103A38103
:10560000A3891D43A581CFE7884210B501EB0204B1
:1056100002D98442234607D8431EA14208D011F87C
:10562000012B03F8012FF8E7024401468A4200D11A
:1056300010BD13F8014D02F8014DF7E738B5074DDD
:1056400000230446084611462B6000F025F9431C50
:1056500002D12B6803B1236038BD00BF6003002076
:1056600038B5064D0023044608462B6000F024F9A7
:10567000431C02D12B6803B1236038BD60030020B6
:1056800038B5064D0023044608462B6000F034F977
:10569000431C02D12B6803B1236038BD6003002096
:1056A0000A44914200F1FF3300D1704710B511F860
:1056B000014B03F8014F9142F9D110BD1FB51446BB
:1056C0001A46094B1B680546D86854B9074B1C4657
:1056D000CDE9013400912B46054900F06FF800F048
:1056E0007FF8044BF4E700BF2C000020FE73000895
:1056F000D0730008C373000870B5A1FB02543CB915
:105700002946FEF7D7FF064628B90026304670BD69
:105710000C220260F9E72A462146FEF727F8F5E752
:1057200082B001B901A942B14BB113780B60127874
:10573000101E18BF012002B070471046FBE76FF043
:105740000100F8E72DE9F041804615460C4621B9E5
:10575000BDE8F0411146FEF7ADBF2AB9FEF736FFAE
:1057600000242046BDE8F08100F041F8854206465D
:1057700002D8B5EB500FF4D829464046FEF79AFF01
:1057800007460028ECD0B5422A46214628BF3246BB
:10579000FFF786FF21464046FEF718FF3C46E0E74C
:1057A0000346084641B1FF2A04D98A221A604FF005
:1057B000FF3070470A700120704700000EB403B537
:1057C000014603AB054853F8042B00680193FFF72B
:1057D000F9FC02B05DF804EB03B070472C00002028
:1057E00008B5062000F034F8012000F09BF851F8CD
:1057F000043C181F002BBCBF0B58C01870471F2952
:1058000038B505460C4604D9162303604FF0FF3027
:1058100038BDC26B12B152F821304BB9284600F0A6
:1058200031F8224601462846BDE8384000F018B855
:10583000012B0AD0591C03D1162303600120E7E78E
:10584000002142F82410204698470020E0E700009D
:10585000024B01461868FFF7D2BF00BF2C000020A2
:1058600038B5074D00230446084611462B6000F06A
:105870002BF8431C02D12B6803B1236038BD00BF55
:105880006003002000F010B8024B58221A604FF05D
:10589000FF30704760030020024B58221A604FF01F
:1058A000FF30704760030020024B58221A604FF00F
:1058B000FF30704760030020024B58221A6000201E
:1058C000704700BF60030020024B58221A604FF05F
:1058D000FF30704760030020024B58221A604FF0DF
:1058E000FF30704760030020024B58221A604FF0CF
:1058F000FF30704760030020044A05491368002BFD
:1059000008BF0B461844106018467047700300200B
:1059100078030020024B58221A604FF0FF30704786
:1059200060030020FEE700BFF8B500BFF8BC08BC6C
:105930009E467047F8B500BFF8BC08BC9E4670474D
:10594000000000000000000001020304060708092F
:1059500000000000010203044E543335353130207D
:105960004C43442049443A253034580D0A00000085
:105970004C43442049443A2530345800000000008C
:105980000000000000000000000000000000000017
:105990000000000000000000000000000000000007
:1059A0000000000000000000000000000000000FE8
:1059B00080380FFE380F8038000000000000000023
:1059C00000000000000000000000010000060000D0
:1059D0000C00003800003100000600000C00003808
:1059E000000030000000000000000000618000673F
:1059F000F807F980006180006180006180006180AB
:105A00000067F807F98000618000000000000000D6
:105A1000000001C0E003E0F00630080418081FFF92
:105A2000FE040E080787F00381E00000000000007C
:105A300001F000060C00040408060C7001F9C00017
:105A40000E00003BE000EC18070808040C180003E7
:105A5000E00000000001E00007F003F818041C0853
:105A600004170807E1D003C0E00023B0003C0800A1
:105A700020080000100000000000000100003100BC
:105A8000003200001C0000000000000000000000C8
:105A90000000000000000000000000000000000006
:105AA0000000000000000000000000007F0001FF77
:105AB000C00780F00C001810000420000200000055
:105AC0000000002000021000040C00180780F00104
:105AD000FFC0007F00000000000000000000000088
